:020000040800F2
:1000000000500020451C00085D1A0008651A000811
:100010006D1A0008751A00087D1A0008000000001B
:10002000000000000000000000000000851A000829
:10003000911A0008000000009D1A0008A91A000883
:100040008D1C00088D1C00088D1C00088D1C0008EC
:100050008D1C00088D1C00088D1C00088D1C0008DC
:100060008D1C00088D1C00088D1C00088D1C0008CC
:100070008D1C00088D1C00088D1C00088D1C0008BC
:100080008D1C00088D1C00088D1C00088D1C0008AC
:100090008D1C00088D1C00088D1C00088D1C00089C
:1000A0008D1C00088D1C00088D1C00088D1C00088C
:1000B0008D1C00088D1C00088D1C00088D1C00087C
:1000C0008D1C00088D1C00088D1C00088D1C00086C
:1000D0008D1C00088D1C00088D1C00088D1C00085C
:1000E0008D1C00088D1C00088D1C000800000000FD
:1000F0000000000000000000000000000000000000
:0C01000000000000000000005FF808F1A3
:1001100010B5054C237833B9044B13B10448AFF341
:1001200000800123237010BDE801002000000000C2
:100130006C83000808B5034B1BB103490348AFF3B8
:10014000008008BD00000000EC0100206C83000866
:10015000034613F8012B002AFBD1181A0138704707
:1001600081F0004102E000BF83F0004330B54FEA68
:1001700041044FEA430594EA050F08BF90EA020FD5
:100180001FBF54EA000C55EA020C7FEA645C7FEA68
:10019000655C00F0E2804FEA5454D4EB5555B8BF8B
:1001A0006D420CDD2C4480EA020281EA030382EAFC
:1001B000000083EA010180EA020281EA0303362D8E
:1001C00088BF30BD11F0004F4FEA01314FF4801C61
:1001D0004CEA113102D0404261EB410113F0004F73
:1001E0004FEA03334CEA133302D0524263EB43032A
:1001F00094EA050F00F0A780A4F10104D5F1200EC8
:100200000DDB02FA0EFC22FA05F2801841F1000122
:1002100003FA0EF2801843FA05F359410EE0A5F1F6
:1002200020050EF1200E012A03FA0EFC28BF4CF027
:10023000020C43FA05F3C01851EBE37101F00045DD
:1002400007D54FF0000EDCF1000C7EEB00006EEBEA
:100250000101B1F5801F1BD3B1F5001F0CD3490874
:100260005FEA30004FEA3C0C04F101044FEA4452CB
:1002700012F5800F80F09A80BCF1004F08BF5FEA52
:10028000500C50F1000041EB045141EA050130BD32
:100290005FEA4C0C404141EB0101013C28BFB1F544
:1002A000801FE9D291F0000F04BF01460020B1FA8F
:1002B00081F308BF2033A3F10B03B3F120020CDA62
:1002C0000C3208DD02F1140CC2F10C0201FA0CF040
:1002D00021FA02F10CE002F11402D8BFC2F1200CA5
:1002E00001FA02F120FA0CFCDCBF41EA0C0190405B
:1002F000E41AA2BF01EB0451294330BD6FEA0404A4
:100300001F3C1CDA0C340EDC04F11404C4F120028E
:1003100020FA04F001FA02F340EA030021FA04F3A0
:1003200045EA030130BDC4F10C04C4F1200220FAF7
:1003300002F001FA04F340EA0300294630BD21FA35
:1003400004F0294630BD94F0000F83F4801306BFFB
:1003500081F480110134013D4EE77FEA645C18BFEF
:100360007FEA655C29D094EA050F08BF90EA020F86
:1003700005D054EA000C04BF1946104630BD91EA7E
:10038000030F1EBF0021002030BD5FEA545C05D181
:100390004000494128BF41F0004130BD14F58004C0
:1003A0003CBF01F5801130BD01F0004545F0FE4134
:1003B00041F470014FF0000030BD7FEA645C1ABF69
:1003C000194610467FEA655C1CBF0B46024650EAA0
:1003D000013406BF52EA033591EA030F41F40021CC
:1003E00030BD00BF90F0000F04BF0021704730B552
:1003F0004FF4806404F132044FF000054FF0000127
:1004000050E700BF90F0000F04BF0021704730B5E7
:100410004FF4806404F1320410F0004548BF4042BC
:100420004FF000013EE700BF42004FEAE2014FEA11
:1004300031014FEA02701FBF12F07F4393F07F4FEC
:1004400081F06051704732F07F4208BF704793F0EF
:100450007F4F04BF41F40021704730B54FF4607402
:1004600001F0004521F000411CE700BF50EA010205
:1004700008BF704730B54FF000050AE050EA0102AE
:1004800008BF704730B511F0004502D5404261EB1E
:1004900041014FF4806404F132045FEA915C3FF45F
:1004A000D8AE4FF003025FEADC0C18BF03325FEAFC
:1004B000DC0C18BF033202EBDC02C2F1200300FAAD
:1004C00003FC20FA02F001FA03FE40EA0E0021FAD2
:1004D00002F11444BDE600BF70B54FF0FF0C4CF4C0
:1004E000E06C1CEA11541DBF1CEA135594EA0C0F72
:1004F00095EA0C0F00F0DEF82C4481EA030621EAAD
:100500004C5123EA4C5350EA013518BF52EA0335E7
:1005100041F4801143F4801338D0A0FB02CE4FF099
:100520000005E1FB02E506F00042E0FB03E54FF0C9
:100530000006E1FB03569CF0000F18BF4EF0010EC1
:10054000A4F1FF04B6F5007F64F5407404D25FEABD
:100550004E0E6D4146EB060642EAC62141EA555170
:100560004FEAC52040EA5E504FEACE2EB4F1FD0CB2
:1005700088BFBCF5E06F1ED8BEF1004F08BF5FEA30
:10058000500E50F1000041EB045170BD06F00046E2
:1005900046EA010140EA020081EA0301B4EB5C048F
:1005A000C2BFD4EB0C0541EA045170BD41F4801187
:1005B0004FF0000E013C00F3AB8014F1360FDEBFAC
:1005C000002001F0004170BDC4F10004203C35DA88
:1005D0000C341BDC04F11404C4F1200500FA05F30B
:1005E00020FA04F001FA05F240EA020001F00042AC
:1005F00021F0004110EBD37021FA04F642EB060122
:100600005EEA430E08BF20EAD37070BDC4F10C044B
:10061000C4F1200500FA04F320FA05F001FA04F20F
:1006200040EA020001F0004110EBD37041F10001FB
:100630005EEA430E08BF20EAD37070BDC4F1200506
:1006400000FA05F24EEA020E20FA04F301FA05F26E
:1006500043EA020321FA04F001F0004121FA04F216
:1006600020EA020000EBD3705EEA430E08BF20EAE6
:10067000D37070BD94F0000F0FD101F00046400020
:1006800041EB010111F4801F08BF013CF7D041EAA2
:10069000060195F0000F18BF704703F000465200A6
:1006A00043EB030313F4801F08BF013DF7D043EA77
:1006B0000603704794EA0C0F0CEA135518BF95EA2D
:1006C0000C0F0CD050EA410618BF52EA4306D1D1B4
:1006D00081EA030101F000414FF0000070BD50EAD3
:1006E000410606BF1046194652EA430619D094EA5D
:1006F0000C0F02D150EA013613D195EA0C0F05D147
:1007000052EA03361CBF104619460AD181EA03019A
:1007100001F0004141F0FE4141F470014FF0000052
:1007200070BD41F0FE4141F4780170BD70B54FF0ED
:10073000FF0C4CF4E06C1CEA11541DBF1CEA13556D
:1007400094EA0C0F95EA0C0F00F0A7F8A4EB05044F
:1007500081EA030E52EA03354FEA013100F0888046
:100760004FEA03334FF0805545EA131343EA12630F
:100770004FEA022245EA111545EA10654FEA0026C4
:100780000EF000419D4208BF964244F1FD0404F57D
:10079000407402D25B084FEA3202B61A65EB0305D9
:1007A0005B084FEA32024FF480104FF4002CB6EB96
:1007B000020E75EB030E22BFB61A754640EA0C0016
:1007C0005B084FEA3202B6EB020E75EB030E22BF56
:1007D000B61A754640EA5C005B084FEA3202B6EB97
:1007E000020E75EB030E22BFB61A754640EA9C0056
:1007F0005B084FEA3202B6EB020E75EB030E22BF26
:10080000B61A754640EADC0055EA060E18D04FEAE3
:10081000051545EA16754FEA06164FEAC30343EA83
:1008200052734FEAC2025FEA1C1CC0D111F4801F50
:100830000BD141EA00014FF000004FF0004CB6E749
:1008400011F4801F04BF01430020B4F1FD0C88BFE8
:10085000BCF5E06F3FF6AFAEB5EB030C04BFB6EBF3
:10086000020C5FEA500C50F1000041EB045170BDE6
:100870000EF0004E4EEA113114EB5C04C2BFD4EB13
:100880000C0541EA045170BD41F480114FF0000E97
:10089000013C90E645EA060E8DE60CEA135594EA13
:1008A0000C0F08BF95EA0C0F3FF43BAF94EA0C0F16
:1008B0000AD150EA01347FF434AF95EA0C0F7FF48B
:1008C00025AF104619462CE795EA0C0F06D152EADF
:1008D00003353FF4FDAE1046194622E750EA4106C3
:1008E00018BF52EA43067FF4C5AE50EA41047FF4D4
:1008F0000DAF52EA43057FF4EBAE12E74FF0FF3C39
:1009000006E000BF4FF0010C02E000BF4FF0010C09
:100910004DF804CD4FEA410C7FEA6C5C4FEA430C82
:1009200018BF7FEA6C5C1BD001B050EA410C0CBFD1
:1009300052EA430C91EA030F02BF90EA020F002033
:10094000704710F1000F91EA030F58BF994208BF9A
:1009500090422CBFD8176FEAE37040F00100704757
:100960004FEA410C7FEA6C5C02D150EA013C07D1AE
:100970004FEA430C7FEA6C5CD6D152EA033CD3D0F9
:100980005DF8040B704700BF8446104662468C46F3
:100990001946634600E000BF01B5FFF7B7FF002826
:1009A00048BF10F1000F01BD4DF808EDFFF7F4FF4F
:1009B0000CBF012000205DF808FB00BF4DF808EDDA
:1009C000FFF7EAFF34BF012000205DF808FB00BFFD
:1009D0004DF808EDFFF7E0FF94BF012000205DF81F
:1009E00008FB00BF4DF808EDFFF7CEFF94BF0120D4
:1009F00000205DF808FB00BF4DF808EDFFF7C4FFCD
:100A000034BF012000205DF808FB00BF4FEA410C15
:100A10007FEA6C5C02D150EA013C0AD14FEA430CF8
:100A20007FEA6C5C02D152EA033C02D14FF0000035
:100A300070474FF0010070474FEA410212F5001273
:100A400015D211D56FF47873B3EB625212D94FEA15
:100A5000C12343F0004343EA505311F0004F23FAFF
:100A600002F018BF404270474FF00000704750EA54
:100A7000013005D111F0004008BF6FF00040704711
:100A80004FF00000704700BF4A0011D212F500126B
:100A900011D20DD56FF47873B3EB62520ED44FEAD6
:100AA000C12343F0004343EA505323FA02F0704756
:100AB0004FF00000704750EA013002D14FF0FF3094
:100AC00070474FF0000070474FEA4102B2F1E04337
:100AD00024BFB3F5001CDCF1FE5C0DD901F0004C25
:100AE0004FEAC0024CEA5070B2F1004F40EB830075
:100AF00008BF20F00100704711F0804F21D113F1A1
:100B00003872BCBF01F00040704741F480114FEAD9
:100B10005252C2F11802C2F1200C10FA0CF320FA62
:100B200002F018BF40F001004FEAC1234FEAD3237F
:100B300003FA0CFC40EA0C0023FA02F34FEA4303E9
:100B4000CCE77FEA625307D150EA01331EBF4FF072
:100B5000FE4040F44000704701F0004040F0FE408D
:100B600040F40000704700BF38B50022002304465F
:100B70000D46FFF723FF28B920462946BDE8384037
:100B800000F00AB8204605F1004100F005F84042A7
:100B900061EB410138BD00BFD0B500220B4B0646CA
:100BA0000F46FFF799FCFFF76FFF0446FFF71AFCAB
:100BB0000022074BFFF790FC02460B4630463946B1
:100BC000FFF7D2FAFFF760FF2146D0BD0000F03DED
:100BD0000000F04180B500AF1E2001F0BBF80022FC
:100BE0004FF400411C4801F058FB01224FF48041B2
:100BF000194801F052FB00224FF40051164801F051
:100C00004CFB00224FF48051134801F046FB0022B8
:100C10004FF40071114801F040FB01224FF4807144
:100C20000E4801F03AFB00224FF480710B4801F0AE
:100C300034FB2821002000F013F80C21002000F0E4
:100C40000FF80621002000F00BF80121002000F031
:100C500007F800BF80BD00BF000C01400008014044
:100C600080B582B000AF03460A46FB711346BB71E4
:100C7000022001F06FF8FB79002B06D001224FF41F
:100C800000715A4801F009FB05E000224FF40071A1
:100C9000564801F002FB97F90630002B06DA0122D4
:100CA0004FF48051524801F0F8FA05E000224FF469
:100CB00080514F4801F0F1FABB7903F04003002B5B
:100CC00006D001224FF40051494801F0E6FA05E050
:100CD00000224FF40051464801F0DFFABB7903F0DF
:100CE0002003002B06D001224FF48041404801F040
:100CF000D4FA05E000224FF480413D4801F0CDFADE
:100D0000BB7903F01003002B06D001224FF4004101
:100D1000374801F0C2FA05E000224FF400413448A0
:100D200001F0BBFA01224FF48071304801F0B5FAAE
:100D300000224FF480712D4801F0AFFABB7903F027
:100D40000803002B06D001224FF48051284801F0FF
:100D5000A4FA05E000224FF48051254801F09DFAE5
:100D6000BB7903F00403002B06D001224FF400519D
:100D70001F4801F092FA05E000224FF400511C4890
:100D800001F08BFABB7903F00203002B06D001229D
:100D90004FF48041164801F080FA05E000224FF43C
:100DA0008041134801F079FABB7903F00103002B6D
:100DB00006D001224FF400410D4801F06EFA05E023
:100DC00000224FF400410A4801F067FA01224FF473
:100DD0008071064801F061FA00224FF480710348E7
:100DE00001F05BFA00BF0837BD4680BD0008014036
:100DF000000C014080B582B000AF03463A60FB7141
:100E00000B46BB71FB79032B37D801A252F823F0B4
:100E1000210E0008310E0008410E0008510E000896
:100E2000BB79803BDBB219460020FFF719FF18E0C1
:100E3000BB79403BDBB219460020FFF711FF10E001
:100E4000BB79703BDBB219460020FFF709FF08E0D1
:100E5000BB79303BDBB219460020FFF701FF00BF32
:100E60000BE00AE03B6893F90030DBB21946012041
:100E7000FFF7F6FE3B6801333B603B6893F90030B7
:100E8000002BEFD100BF00BF0837BD4680BD00BFBB
:100E90002DE9F04387B000AF0346FB710B46BB71F1
:100EA00013467B716B461E467B79591C4B1E3B617A
:100EB0000A460023904699464FF000024FF0000387
:100EC0004FEAC90343EA58734FEAC8020A460023AF
:100ED00014461D464FF000024FF00003EB0043EABA
:100EE0005473E2000B460733DB08DB00ADEB030D68
:100EF0006B460033FB600023FB7506E0FB7DFA6860
:100F00002021D154FB7D0133FB75FA7D7B799A4218
:100F1000F4D37B79FA680021D154B979FB79FA6866
:100F20001846FFF767FFB54600BF1C37BD46BDE852
:100F3000F08380B500AF01210020FFF791FE00BFD4
:100F400080BDB0B586B000AF0146C7E900230B46AF
:100F5000FB73D7E90A0101F097FDC7E90401FB7BA8
:100F6000002B32D1D7E90423D7E90001FFF7FEF8BF
:100F700002460B461046194601F0F0FD04460D46A8
:100F8000D7E90423D7E90001FFF7EEF802460B4644
:100F90001046194601F0E2FD02460B46204629465E
:100FA000FFF7E2F802460B4614461D46D7E9040156
:100FB00002460B46FFF7DAF802460B462046294662
:100FC000FFF7B4FB02460B4639E0FB7B012B32D125
:100FD000D7E90423D7E90001FFF7C8F802460B461A
:100FE0001046194601F074FD04460D46D7E9042366
:100FF000D7E90001FFF7B8F802460B46104619463C
:1010000001F066FD02460B4620462946FFF7ACF884
:1010100002460B4614461D46D7E9040102460B461C
:10102000FFF7A4F802460B4620462946FFF77EFB51
:1010300002460B4603E04FF000024FF0000310465B
:1010400019461837BD46B0BD80B58EB000AF014619
:10105000C7E900230B46FB73D7E90023D7E910014A
:10106000FFF782F802460B4610461946D7E91223CD
:10107000FFF75CFB02460B46C7E908234FF000026E
:101080004FF00003C7E90C230023FB6256E0F86A27
:10109000FFF7B8F9D7E90823FFF71EFA02460B4617
:1010A000D7E90001FFF762F802460B46C7E90623BD
:1010B000FB6A002B0BD0F86AFFF7A4F902460B4637
:1010C000D7E91201FFF770FC0346002B03D04FF065
:1010D0000002294B02E04FF00002284BC7E904232D
:1010E000FB7B002B12D1D7E9060101F037FDD7E9D0
:1010F0000423FFF7F1F902460B46D7E90C01FFF78D
:1011000035F802460B46C7E90C2314E0FB7B012BA4
:1011100011D1D7E9060101F0DBFCD7E90423FFF781
:10112000DBF902460B46D7E90C01FFF71FF8024630
:101130000B46C7E90C23FB6A0133FB62F86AFFF731
:1011400061F902460B46D7E91201FFF74BFC034653
:10115000002B9CD1D7E90823D7E90C01FFF7BCF994
:1011600002460B46C7E90C23D7E90C231046194663
:101170003837BD4680BD00BF0000E03F0000F03FB3
:1011800080B584B000AF78600B46FB701023FB6025
:101190007868FEF7DDFF0346BB60FB78052B4DD872
:1011A00001A252F823F000BFCD110008C1110008C0
:1011B000E71100080B120008FF11000825120008B3
:1011C0007A6800210020FFF715FE38E0FA68BB6856
:1011D000D31ADA0F13445B10DBB27A681946002089
:1011E000FFF708FE2BE0FB68DAB2BB68DBB2D31A6C
:1011F000DBB27A6819460020FFF7FCFD1FE07A6831
:1012000000210120FFF7F6FD19E0FA68BB68D31A48
:10121000DA0F13445B10DBB27A6819460120FFF73E
:10122000E9FD0CE0FB68DAB2BB68DBB2D31ADBB2D3
:101230007A6819460120FFF7DDFD00E000BF00BF1E
:101240001037BD4680BD00BF80B58AB000AF786062
:101250004A4A07F1180392E8030083E803000021DB
:101260004748FFF78DFFBB6904211846FFF788FF49
:10127000FB6905211846FFF783FF00233B75012317
:101280007B7501237B6207F114027B6A13441B7890
:1012900087F82330002387F8223061E02021394885
:1012A00000F0E4FF0346002B03D17B6801221A7093
:1012B0005DE04FF40061344800F0D8FF0346002B96
:1012C00006D008212F4800F0D1FF0346002B37D16C
:1012D0007B6A01337B627B6A002B03F00103B8BF9A
:1012E0005B427B6207F114027B6A13441B7887F828
:1012F00023307B6A9B0028333B4453F8102C07F1C2
:101300000C032249184603F005FC97F82330002B04
:101310000BD106220A210120FFF7BAFD07F10C03C9
:1013200004211846FFF72CFF0AE0062200210120C5
:10133000FFF7AEFD07F10C0305211846FFF720FF6C
:101340004FF400710F4800F091FF0346002B04D1C9
:10135000FFF7EFFD012387F82230962000F0FAFC1A
:1013600097F8223083F00103DBB2002B96D197F877
:10137000233018462837BD4680BD00BFA48300082F
:1013800088830008000C0140000801409083000899
:1013900080B58AB000AF78604B4A07F1180392E835
:1013A000030083E8030000214848FFF7E9FEBB691A
:1013B00004211846FFF7E4FEFB6905211846FFF7F4
:1013C000DFFE01233B7500237B7501237B6207F160
:1013D00014027B6A13441B7887F82330002387F8B4
:1013E000223061E020213A4800F040FF0346002B04
:1013F00003D17B6801221A705DE04FF4006135482B
:1014000000F034FF0346002B06D00821304800F0DE
:101410002DFF0346002B37D17B6A01337B627B6A49
:10142000002B03F00103B8BF5B427B6207F114029B
:101430007B6A13441B7887F823307B6A9B00283330
:101440003B4453F8102C07F10C032349184603F0D2
:1014500061FB97F82330012B0BD106220A210120D2
:10146000FFF716FD07F10C0304211846FFF788FE6D
:101470000AE0062200210120FFF70AFD07F10C0314
:1014800005211846FFF77CFE4FF40071104800F06C
:10149000EDFE0346002B04D1FFF74BFD012387F837
:1014A0002230962000F056FC97F8223083F001039A
:1014B000DBB2002B96D1FFF73CFD97F8233018469E
:1014C0002837BD4680BD00BFBC8300088883000864
:1014D000000C0140000801409083000890B58DB0D9
:1014E00000AF0346B9607A60FB73624A07F11803E4
:1014F00092E8030083E803005F4BBB625F4B7B62B3
:101500005F4B3B6200233B7500237B750023FB622E
:10151000FFF70FFD99E000215A48FFF731FE3B7DB0
:1015200083F00103DBB2002B1DD0FB7B012B01D12B
:1015300001237B75B8697B68D3E90023524903F026
:10154000E9FAFB7B012B04D10421386AFFF718FE6E
:1015500003E00421B86AFFF713FEBB6905211846B2
:10156000FFF70EFE16E07B7D83F00103DBB2002B5C
:1015700010D0F8697B680833D3E90023424903F0AF
:10158000C9FA0421786AFFF7FBFDFB6905211846BB
:10159000FFF7F6FD20213D4800F068FE0346002BD2
:1015A00003D1BB6801221A705DE04FF40071374827
:1015B00000F05CFE0346002B0FD13B7D83F001035E
:1015C000DBB2002B07D0FB6A0133FB6201233B75C2
:1015D000FFF7AFFC01E001237B754FF400612C485D
:1015E00000F044FE0346002B12D1FB6ADB007A6850
:1015F0001344D3E90001FB6ADB007A68D4184FF08A
:101600000002244BFEF7B2FD02460B46C4E900235C
:1016100008211E4800F02AFE0346002B12D1FB6A67
:10162000DB007A681344D3E90001FB6ADB007A68C7
:10163000D4184FF00002174BFEF796FD02460B46FA
:10164000C4E90023962000F085FB3B7D83F0010375
:10165000DBB2002B7FF45FAF7B7D83F00103DBB255
:10166000002B7FF458AFFFF764FC00BF3437BD4652
:1016700090BD00BFEC830008C4830008C883000845
:10168000CC830008D0830008E0830008000C0140F0
:10169000000801400000E03F80B58AB000AF01467D
:1016A000C7E900230B46FB7300237B6107F1180396
:1016B00000221A605A609A60DA6007F11400D7E9D4
:1016C00000230C4903F026FAFB7B012B04D10021F7
:1016D0000948FFF755FD03E000210848FFF750FDDA
:1016E00007F1140304211846FFF74AFD00BF28370D
:1016F000BD4680BDF4830008FC8300080C8400080C
:10170000F0B591B004AF00F0C3FA00F0AFF800F00C
:10171000F1F8FFF75FFA514A02210020FFF76AFB58
:101720004F4A02210120FFF765FB4FF4FA6000F0F9
:1017300011FBFFF7FEFB0023FB7581E0C82000F0E2
:1017400009FB07F117031846FFF77EFD034687F8EC
:101750002730FB7D002B7BD1C82000F0FBFA07F17E
:1017600017031846FFF714FE034687F82630FB7D63
:10177000002B6FD1C82000F0EDFA4FF000024FF0BF
:101780000003C7E900234FF000024FF00003C7E950
:1017900002233A4607F1170197F826301846FFF75B
:1017A0009DFEFB7D002B57D1C82000F0D3FA4FF0EF
:1017B00000024FF00003C7E90A234FF00002294B53
:1017C000C7E9062397F82630012B0FD1D7E900018E
:1017D00097F82740D7E90623CDE9002302460B46B8
:1017E0002046FFF7AEFBC7E90A0116E097F826305E
:1017F000002B12D1D7E90045D7E9022397F82760DB
:10180000D7E90601CDE90201CDE9002322462B46A6
:101810003046FFF719FCC7E90A0197F82610D7E907
:101820000A230846FFF738FF4FF400710E4800F016
:101830001DFD0346002BF7D1FFF77BFB0123FB7552
:10184000FB7D83F00103DBB2002B7FF477AF6CE705
:1018500000BF6AE700BF68E700BF66E71C840008B6
:10186000288400080000B03C000C014080B590B016
:1018700000AF07F1180328220021184603F0ADF944
:101880003B1D00221A605A609A60DA601A610123D7
:10189000BB614FF48033FB6100233B620123BB62D9
:1018A00002237B634FF48033BB630023FB6307F1A8
:1018B0001803184600F00AFD0346002B01D000F083
:1018C00095F80F237B600223BB608023FB6000231D
:1018D0003B6100237B613B1D0021184600F078FF2F
:1018E0000346002B01D000F081F800BF4037BD4611
:1018F00080BD000080B588B000AF07F11003002262
:101900001A605A609A60DA60354B9B69344A43F03A
:1019100020039361324B9B6903F02003FB60FB685B
:101920002F4B9B692E4A43F0080393612C4B9B6914
:1019300003F00803BB60BB68294B9B69284A43F04E
:1019400004039361264B9B6903F004037B607B686F
:1019500000224FF47041234800F09FFC00224FF416
:101960004071214800F099FC4FF470433B61012322
:101970007B610023BB610223FB6107F11003194661
:10198000184800F0EFFA4FF440733B6101237B618C
:101990000023BB610223FB6107F1100319461248C3
:1019A00000F0E0FA4FF400633B6100237B61012308
:1019B000BB6107F1100319460B4800F0D3FA4FF44E
:1019C0000A733B6100237B610123BB6107F11003B4
:1019D0001946044800F0C6FA00BF2037BD4680BD56
:1019E00000100240000C01400008014080B400AF2C
:1019F00072B600BF00BFFDE780B485B000AF154BE5
:101A00009B69144A43F001039361124B9B6903F0F5
:101A10000103BB60BB680F4BDB690E4A43F0805388
:101A2000D3610C4BDB6903F080537B607B680A4B0E
:101A30005B68FB60FB6823F0E063FB60FB6843F0DE
:101A40000073FB60044AFB68536000BF1437BD4657
:101A500080BC7047001002400000014080B400AF1D
:101A600000BFFDE780B400AF00BFFDE780B400AF6A
:101A700000BFFDE780B400AF00BFFDE780B400AF5A
:101A800000BFFDE780B400AF00BFBD4680BC70471B
:101A900080B400AF00BFBD4680BC704780B400AFCB
:101AA00000BFBD4680BC704780B500AF00F036F97E
:101AB00000BF80BD80B400AF01231846BD4680BC86
:101AC000704780B582B000AF7860396003F0D8F815
:101AD000034616221A604FF0FF3318460837BD46FA
:101AE00080BD80B582B000AF78604FF0FF3178687C
:101AF000FFF7E7FF00BFFDE780B586B000AFF860F5
:101B0000B9607A6000237B610AE0AFF30080014690
:101B1000BB685A1CBA60CAB21A707B6901337B6118
:101B20007A697B689A42F0DB7B6818461837BD46B5
:101B300080BD80B586B000AFF860B9607A600023E0
:101B40007B6109E0BB685A1CBA601B781846AFF38A
:101B500000807B6901337B617A697B689A42F1DBA3
:101B60007B6818461837BD4680BD80B483B000AF8F
:101B700078604FF0FF3318460C37BD4680BC704785
:101B800080B483B000AF786039603B684FF4005296
:101B90005A60002318460C37BD4680BC704780B49D
:101BA00083B000AF7860012318460C37BD4680BC77
:101BB000704780B485B000AFF860B9607A600023E8
:101BC00018461437BD4680BC7047000080B586B00B
:101BD00000AF7860144A154BD31A7B617B693B6177
:101BE000134B1B68002B02D1114B124A1A60104B89
:101BF0001A687B6813443A699A4207D203F040F8A6
:101C000003460C221A604FF0FF3309E0084B1B68B3
:101C1000FB60074B1A687B681344054A1360FB6836
:101C200018461837BD4680BD005000200004000053
:101C3000040200205803002080B400AF00BFBD465E
:101C400080BC7047FFF7F8FF0B480C490C4A002393
:101C500002E0D458C4500433C4188C42F9D3094A62
:101C6000094C002301E013600432A242FBD303F0CD
:101C70000DF8FFF745FD704700000020E801002047
:101C8000708A0008E801002058030020FEE70000E9
:101C900080B500AF084B1B68074A43F01003136080
:101CA000032000F02BF90F2000F008F8FFF7A4FE46
:101CB0000023184680BD00BF0020024080B582B0DE
:101CC00000AF7860124B1A68124B1B7819464FF41C
:101CD0007A73B3FBF1F3B2FBF3F3184600F035F976
:101CE0000346002B01D001230EE07B680F2B0AD89E
:101CF000002279684FF0FF3000F00BF9064A7B684C
:101D00001360002300E0012318460837BD4680BD5C
:101D100000000020080000200400002080B400AF74
:101D2000054B1B781A46054B1B681344034A136086
:101D300000BFBD4680BC704708000020080200209C
:101D400080B400AF024B1B681846BD4680BC70478C
:101D50000802002080B584B000AF7860FFF7F0FF84
:101D6000B8607B68FB60FB68B3F1FF3F05D00A4BAE
:101D70001B781A46FB681344FB6000BFFFF7E0FFC7
:101D80000246BB68D31AFA689A42F7D800BF00BF70
:101D90001037BD4680BD00BF0800002080B485B06C
:101DA00000AF78607B6803F00703FB600C4BDB68D7
:101DB000BB60BA684FF6FF031340BB60FB681A02B2
:101DC000BB68134343F0BF6343F40033BB60044A72
:101DD000BB68D36000BF1437BD4680BC704700BFEE
:101DE00000ED00E080B400AF044BDB681B0A03F099
:101DF00007031846BD4680BC704700BF00ED00E0F9
:101E000080B483B000AF03463960FB7197F90730A7
:101E1000002B0ADB3B68DAB20C4997F90730120154
:101E2000D2B20B4483F800230AE03B68DAB20849D7
:101E3000FB7903F00F03043B1201D2B20B441A7674
:101E400000BF0C37BD4680BC704700BF00E100E01A
:101E500000ED00E080B489B000AFF860B9607A604E
:101E6000FB6803F00703FB61FB69C3F10703042B65
:101E700028BF0423BB61FB690433062B02D9FB692D
:101E8000033B00E000237B614FF0FF32BB6902FAA5
:101E900003F3DA43BB681A407B699A404FF0FF3185
:101EA0007B6901FA03F3D9437B680B40134318465F
:101EB0002437BD4680BC704780B582B000AF7860E3
:101EC0007B68013BB3F1807F01D301230FE00A4A15
:101ED0007B68013B53600F214FF0FF30FFF790FF0D
:101EE000054B00229A60044B07221A600023184613
:101EF0000837BD4680BD00BF10E000E080B582B06D
:101F000000AF78607868FFF749FF00BF0837BD462B
:101F100080BD80B586B000AF0346B9607A60FB73C0
:101F200000237B61FFF75EFF78617A68B9687869A2
:101F3000FFF790FF024697F90F3011461846FFF75A
:101F40005FFF00BF1837BD4680BD80B582B000AFCF
:101F500078607868FFF7B0FF034618460837BD463B
:101F600080BD000080B48BB000AF78603960002382
:101F70007B6200233B6269E101227B6A02FA03F380
:101F8000FB613B681B68FA691340BB61BA69FB6976
:101F90009A4240F058813B685B689A4A93425ED00F
:101FA000984A934275D8984A934258D0964A934299
:101FB0006FD8964A934252D0944A934269D8944A31
:101FC00093424CD0924A934263D8924A934246D06D
:101FD000904A93425DD8122B2AD8122B59D801A2CD
:101FE00052F823F05F200008392000084B20000839
:101FF0008D200008932000089320000893200008FB
:1020000093200008932000089320000893200008E4
:1020100093200008932000089320000893200008D4
:102020009320000893200008412000085520000854
:10203000794A934213D02CE03B68DB683B6229E08D
:102040003B68DB6804333B6224E03B68DB680833B1
:102050003B621FE03B68DB680C333B621AE03B6885
:102060009B68002B02D104233B6213E03B689B6812
:10207000012B05D108233B627B68FA691A6109E0EC
:1020800008233B627B68FA695A6103E000233B62E4
:1020900000E000BFBB69FF2B01D87B6801E07B68D3
:1020A00004337B61BB69FF2B02D87B6A9B0002E093
:1020B0007B6A083B9B003B617B691A680F213B6987
:1020C00001FA03F3DB431A40396A3B6901FA03F36F
:1020D0001A437B691A603B685B6803F08053002BEE
:1020E00000F0B1804D4B9B694C4A43F00103936172
:1020F0004A4B9B6903F00103BB60BB68484A7B6A9B
:102100009B08023352F82330FB607B6A03F0030321
:102110009B000F2202FA03F3DB43FA681340FB60D3
:102120007B68404A934213D07B683F4A93420DD06C
:102130007B683E4A934207D07B683D4A934201D177
:10214000032306E0042304E0022302E0012300E06D
:1021500000237A6A02F0030292009340FA68134364
:10216000FB602F497B6A9B080233FA6841F8232001
:102170003B685B6803F48013002B06D02D4B9A68F4
:102180002C49BB6913438B6006E02A4B9A68BB69F4
:10219000DB43284913408B603B685B6803F4001302
:1021A000002B06D0234BDA682249BB691343CB606E
:1021B00006E0204BDA68BB69DB431E491340CB6065
:1021C0003B685B6803F40033002B06D0194B5A6858
:1021D0001849BB6913434B6006E0164B5A68BB694C
:1021E000DB43144913404B603B685B6803F4803366
:1021F000002B21D00F4B1A680E49BB6913430B60AB
:1022000021E000BF00003210000031100000221059
:1022100000002110000012100000111000100240F8
:102220000000014000080140000C01400010014086
:1022300000140140000401400B4B1A68BB69DB43EA
:10224000094913400B607B6A01337B623B681A6863
:102250007B6A22FA03F3002B7FF48EAE00BF00BF2F
:102260002C37BD4680BC70470004014080B485B067
:1022700000AF78600B467B807B689A687B88134050
:10228000002B02D00123FB7301E00023FB73FB7BD7
:1022900018461437BD4680BC704780B483B000AF89
:1022A00078600B467B8013467B707B78002B03D0D5
:1022B0007A887B681A6103E07B881A047B681A615C
:1022C00000BF0C37BD4680BC7047000080B586B0AB
:1022D00000AF78607B68002B01D1012372E27B683C
:1022E0001B6803F00103002B00F08780924B5B68B2
:1022F00003F00C03042B0CD08F4B5B6803F00C0332
:10230000082B12D18C4B5B6803F48033B3F5803F0C
:102310000BD1894B1B6803F40033002B6CD07B6816
:102320005B68002B68D101234CE27B685B68B3F5E6
:10233000803F06D1804B1B687F4A43F48033136093
:102340002EE07B685B68002B0CD17B4B1B687A4AC4
:1023500023F480331360784B1B68774A23F480237F
:1023600013601DE07B685B68B3F5A02F0CD1724B46
:102370001B68714A43F4802313606F4B1B686E4ADD
:1023800043F4803313600BE06B4B1B686A4A23F401
:1023900080331360684B1B68674A23F48023136003
:1023A0007B685B68002B13D0FFF7CAFC386108E03C
:1023B000FFF7C6FC02463B69D31A642B01D90323FD
:1023C00000E25D4B1B6803F40033002BF0D014E0F7
:1023D000FFF7B6FC386108E0FFF7B2FC02463B6944
:1023E000D31A642B01D90323ECE1534B1B6803F48C
:1023F0000033002BF0D100E000BF7B681B6803F0C6
:102400000203002B63D04C4B5B6803F00C03002BE2
:102410000BD0494B5B6803F00C03082B1CD1464BD7
:102420005B6803F48033002B16D1434B1B6803F029
:102430000203002B05D07B681B69012B01D001230F
:10244000C0E13D4B1B6823F0F8027B685B69DB0051
:10245000394913430B603AE07B681B69002B20D09D
:10246000364B01221A60FFF76BFC386108E0FFF77A
:1024700067FC02463B69D31A022B01D90323A1E171
:102480002D4B1B6803F00203002BF0D02A4B1B6876
:1024900023F0F8027B685B69DB00274913430B607C
:1024A00015E0264B00221A60FFF74AFC386108E06D
:1024B000FFF746FC02463B69D31A022B01D90323DE
:1024C00080E11D4B1B6803F00203002BF0D17B68F9
:1024D0001B6803F00803002B3AD07B689B69002B34
:1024E00019D0174B01221A60FFF72AFC386108E067
:1024F000FFF726FC02463B69D31A022B01D90323BE
:1025000060E10D4B5B6A03F00203002BF0D0012069
:1025100000F09CFA1CE00A4B00221A60FFF710FC46
:1025200038610FE0FFF70CFC02463B69D31A022B1F
:1025300008D9032346E100BF0010024000004242D8
:1025400080044242924B5B6A03F00203002BE9D104
:102550007B681B6803F00403002B00F0A6800023B7
:10256000FB758B4BDB6903F08053002B0DD1884B3F
:10257000DB69874A43F08053D361854BDB6903F005
:102580008053BB60BB680123FB75824B1B6803F45F
:102590008073002B18D17F4B1B687E4A43F48073F5
:1025A0001360FFF7CDFB386108E0FFF7C9FB024677
:1025B0003B69D31A642B01D9032303E1754B1B68D4
:1025C00003F48073002BF0D07B68DB68012B06D10D
:1025D0006F4B1B6A6E4A43F0010313622DE07B6868
:1025E000DB68002B0CD16A4B1B6A694A23F001039C
:1025F0001362674B1B6A664A23F0040313621CE0F4
:102600007B68DB68052B0CD1614B1B6A604A43F089
:10261000040313625E4B1B6A5D4A43F001031362BD
:102620000BE05B4B1B6A5A4A23F001031362584BC1
:102630001B6A574A23F0040313627B68DB68002B94
:1026400015D0FFF77DFB38610AE0FFF779FB024602
:102650003B69D31A41F28832934201D90323B1E096
:102660004B4B1B6A03F00203002BEED014E0FFF784
:1026700067FB38610AE0FFF763FB02463B69D31A48
:1026800041F28832934201D903239BE0404B1B6AFD
:1026900003F00203002BEED1FB7D012B05D13C4B57
:1026A000DB693B4A23F08053D3617B68DB69002BF5
:1026B00000F08780364B5B6803F00C03082B61D079
:1026C0007B68DB69022B46D1334B00221A60FFF78F
:1026D00037FB386108E0FFF733FB02463B69D31A4A
:1026E000022B01D903236DE0294B1B6803F0007313
:1026F000002BF0D17B681B6AB3F5803F08D1244BD7
:102700005B6823F400327B689B68214913434B606C
:102710001F4B5B6823F474127B68196A7B685B6AE1
:102720000B431B4913434B601B4B01221A60FFF7FD
:1027300007FB386108E0FFF703FB02463B69D31A49
:10274000022B01D903233DE0114B1B6803F00073FA
:10275000002BF0D035E0104B00221A60FFF7F0FAA2
:10276000386108E0FFF7ECFA02463B69D31A022B06
:1027700001D9032326E0064B1B6803F00073002BEE
:10278000F0D11EE07B68DB69012B07D1012319E042
:102790000010024000700040600042420B4B5B683A
:1027A000FB60FB6803F480327B681B6A9A4206D1A7
:1027B000FB6803F470127B685B6A9A4201D00123C4
:1027C00000E0002318461837BD4680BD00100240C7
:1027D00080B584B000AF786039607B68002B01D190
:1027E0000123D0E06A4B1B6803F007033A689A4262
:1027F00010D9674B1B6823F0070265493B681343F8
:102800000B60634B1B6803F007033A689A4201D0E0
:102810000123B8E07B681B6803F00203002B20D083
:102820007B681B6803F00403002B05D0594B5B68E1
:10283000584A43F4E06353607B681B6803F0080365
:10284000002B05D0534B5B68524A43F460535360EE
:10285000504B5B6823F0F0027B689B684D49134343
:102860004B607B681B6803F00103002B40D07B6842
:102870005B68012B07D1474B1B6803F40033002B27
:1028800015D101237FE07B685B68022B07D1414BA8
:102890001B6803F00073002B09D1012373E03D4B4B
:1028A0001B6803F00203002B01D101236BE0394BBD
:1028B0005B6823F003027B685B68364913434B6017
:1028C000FFF73EFAF8600AE0FFF73AFA0246FB68C3
:1028D000D31A41F28832934201D9032353E02D4B9E
:1028E0005B6803F00C027B685B689B009A42EBD14B
:1028F000274B1B6803F007033A689A4210D2244B17
:102900001B6823F0070222493B6813430B60204BEE
:102910001B6803F007033A689A4201D0012332E0B2
:102920007B681B6803F00403002B08D0194B5B681D
:1029300023F4E0627B68DB68164913434B607B68D5
:102940001B6803F00803002B09D0124B5B6823F4CB
:1029500060527B681B69DB000E4913434B6000F03B
:1029600021F802460B4B5B681B0903F00F030A4971
:10297000CB5C22FA03F3094A1360094B1B68184623
:10298000FFF79CF9002318461037BD4680BD00BFF5
:1029900000200240001002403484000800000020A3
:1029A0000400002080B487B000AF0023FB60002348
:1029B000BB6000237B6100237B6000233B611E4BD7
:1029C0005B68FB60FB6803F00C03042B02D0082B50
:1029D00003D027E0194B3B6127E0FB689B0C03F019
:1029E0000F03174AD35C7B60FB6803F48033002B32
:1029F00010D0114B5B685B0C03F00103114AD35CF0
:102A0000BB607B680D4A03FB02F2BB68B2FBF3F3C9
:102A10007B6104E07B680C4A02FB03F37B617B690A
:102A20003B6102E0054B3B6100BF3B6918461C3728
:102A3000BD4680BC704700BF0010024000127A0003
:102A4000448400085484000800093D0080B485B027
:102A500000AF78600A4B1B680A4AA2FB03235B0A9B
:102A60007A6802FB03F3FB6000BFFB685A1EFA6042
:102A7000002BF9D100BF00BF1437BD4680BC7047A2
:102A800000000020D34D6210F8B506460F4600F056
:102A9000ABF8324604460D463B4630463946FDF714
:102AA000B5FF90B90022002330463946FDF786FF76
:102AB00058B102F0E5F821230022036000231046FC
:102AC0001946FDF733FE04460D4620462946F8BD5B
:102AD00030B5204D21F00044AC4202460B4687B091
:102AE00006D80022002307B0BDE8304000F054B9FA
:102AF000194DAC4203D9FDF737FB07B030BD02AA30
:102B000000F0C2FA00F00300012809D0022811D019
:102B1000B8B9DDE90423DDE9020100F03DF9ECE795
:102B20000090DDE90423DDE9020100F0F5F901F18F
:102B30000041E2E7DDE90423DDE9020100F02CF9C0
:102B4000F5E70123DDE902010093DDE9042300F04C
:102B5000E3F9D2E7FB21E93FFFFFEF7F30B5204DDE
:102B600021F00044AC4202460B4687B006D8002351
:102B700000220093002300F0CFF904E0194DAC428D
:102B800003D9FDF7F1FA07B030BD02AA00F07CFAD4
:102B900000F00300012809D002280ED0C0B9DDE9F9
:102BA000020101230093DDE90423E4E7DDE90423C6
:102BB000DDE9020100F0F0F8E5E70123DDE90201BB
:102BC0000093DDE9042300F0A7F901F10041DAE701
:102BD000DDE90423DDE9020100F0DEF8F5E700BFDE
:102BE000FB21E93FFFFFEF7F674A2DE9F84F8A435A
:102BF00006460F460B4604460ED10246FDF76CFC16
:102C000002460B4630463946FDF7B0FA06460F46F7
:102C100030463946BDE8F88F00290CDC21F000422F
:102C20000243F5D089B10246FDF79EFA02460B46F3
:102C3000FDF77CFDEAE70A1515D1002109E0E30A5A
:102C4000153A6405002BFAD0F7E70A46FAE75B006D
:102C50000131D802FBD5481E121AC1F1200024FA16
:102C600000F003438C400026A2F2FF371621D20762
:102C70004FF400103246C3F3130343F480135CBFD8
:102C80005B0003EBD4734FEA430358BF640003EBCC
:102C9000D4737F10640015189D42DEBF2A185B1B99
:102CA0003618E50F013905EB43034FEA44044FEAB8
:102CB0005000F0D10D464FF0200A4FF000409A42EC
:102CC00001EB000C02DB13D1A44511D8BCF1000FBD
:102CD0000CEB000142DA002940DB02F1010E9B1AE5
:102CE0007246A44588BF03F1FF33A4EB0C040544EE
:102CF0004FEAD47CBAF1010A0CEB43034FEA4404D7
:102D00004FEA5000DBD11C431AD0204CDFF880B0D2
:102D1000D4E90001DBE90023FDF726FAD4E90089B4
:102D200002460B4640464946FDF752FE40B1D4E903
:102D30000001DBE90023B5F1FF3F11D15546013613
:102D400072106B08F10702F17F5202F5001248BFC2
:102D500043F00043184602EB075157E79646BEE79B
:102D6000FDF704FAD4E9008902460B46404649467D
:102D7000FDF724FE20B1A81C08BF01360235DFE7AD
:102D80006B1C23F00105DBE70000F07F180000203A
:102D900010000020000000002DE9F74F21F0004650
:102DA000B6F1795F80468946CDE9002304D2FDF76C
:102DB00043FE002800F0868042464B464046494686
:102DC000FDF78AFB00224E4B04460D46FDF784FBBF
:102DD0003FA3D3E9002382468B4620462946FDF7D0
:102DE0007BFB3DA3D3E90023FDF7C0F922462B4628
:102DF000FDF772FB3AA3D3E90023FDF7B5F92246AC
:102E00002B46FDF769FB38A3D3E90023FDF7AEF9A4
:102E100022462B46FDF760FB35A3D3E90023FDF7DF
:102E2000A3F922462B46FDF757FB33A3D3E9002332
:102E3000FDF79CF922462B46FDF74EFB22462B461A
:102E4000FDF74AFBDDE9002304460D4640464946AE
:102E5000FDF742FB0B46024629462046FDF784F962
:102E6000284B80469E4289460ED802460B46504665
:102E70005946FDF779F9024600200B462249FDF735
:102E800073F903B0BDE8F08F0024204B22469E4228
:102E90008CBF1F4DA6F500152B4600201A49FDF7E3
:102EA00063F9224606460F462B4650465946FDF723
:102EB0005BF942464B46FDF757F902460B46304652
:102EC0003946DCE700201049DBE700BFAFF30080A4
:102ED000D43888BEE9FAA8BDC4B1B4BD9EEE213E87
:102EE000AD529C804F7E923E9015CB19A001FA3EC8
:102EF0007751C1166CC1563F4C5555555555A53F98
:102F00000000E03F3233D33F0000F03F0000E93FD4
:102F10000000D23F000000002DE9F04F1F4621F0D5
:102F20000043B3F1795F04460D46164685B003D2DF
:102F3000FDF782FD002851D022462B462046294627
:102F4000FDF7CAFA82468B4602460B4620462946C2
:102F5000FDF7C2FA3EA3D3E90023804689465046D6
:102F60005946FDF7B9FA3CA3D3E90023FDF7FCF875
:102F700052465B46FDF7B0FA39A3D3E90023FDF7CB
:102F8000F5F852465B46FDF7A7FA37A3D3E90023CD
:102F9000FDF7EAF852465B46FDF79EFA34A3D3E903
:102FA0000023FDF7E3F80E9BCDE90001DBB90246F3
:102FB0000B4650465946FDF78FFA2FA3D3E900235D
:102FC000FDF7D2F842464B46FDF786FA02460B461D
:102FD00020462946FDF7CAF804460D4620462946F4
:102FE00005B0BDE8F08F002230463946244BFDF78E
:102FF00073FADDE90023CDE9020140464946FDF7B9
:103000006BFA02460B46DDE90201FDF7ADF85246C8
:103010005B46FDF761FA32463B46FDF7A5F816A37D
:10302000D3E9002306460F4640464946FDF754FAC9
:1030300002460B4630463946FDF798F802460B46E5
:1030400020462946FDF790F8C6E700BFAFF30080A1
:103050007CD5CF5A3AD9E53DEB9C2B8AE6E55A3E22
:103060007DFEB157E31DC73ED561C119A0012A3FBE
:10307000A6F810111111813F495555555555C53FB9
:103080000000E03F000000002DE9F04FC44B21F0AC
:1030900000488DB0984506460F461446049107D85F
:1030A000C2E9006700230022C4E90223002526E0CC
:1030B000BC4B984576D8049BBB4D002BAAA3D3E903
:1030C000002338DDFDF750F8A84506460F461AD014
:1030D000A7A3D3E90023FDF747F802460B46804635
:1030E000894630463946FDF73FF8A1A3D3E90023CE
:1030F000FDF73AF80125C4E90089C4E90201284630
:103100000DB0BDE8F08F9CA3D3E90023FDF72CF8A8
:103110009BA3D3E9002306460F46FDF725F8024698
:103120000B468046894630463946FDF71DF894A384
:10313000D3E90023DCE7FDF719F8A84506460F465A
:1031400018D08BA3D3E90023FDF710F802460B46F5
:103150008046894630463946FDF706F884A3D3E910
:103160000023FDF703F84FF0FF35C4E90089C4E9F7
:103170000201C4E780A3D3E90023FCF7F7FF80A393
:10318000D3E9002306460F46FCF7F0FF02460B4644
:103190008046894630463946FCF7E6FF78A3D3E9F6
:1031A0000023DEE7814B984500F2CF8000F062F902
:1031B00075A3D3E9002306460F46FDF78DF90022DB
:1031C0007B4BFCF7D3FFFDF737FC0546FDF71AF9FB
:1031D00002460B46CDE9022363A3D3E90023FDF7A2
:1031E0007BF902460B4630463946FCF7BDFF60A32B
:1031F000D3E9002382468B46DDE90201FDF76CF935
:103200001F2D06460F460CDC6A4B6A1E53F822300F
:10321000434506D032463B4650465946FCF7A4FF8C
:103220000EE03B46324650465946FCF79DFF4FEABA
:1032300028530593C1F30A53C3EB1853102B02DC38
:10324000C4E9000139E04CA3D3E90023DDE9020120
:10325000FDF742F906460F4602460B4650465946D0
:10326000FCF782FF02460B46804689465046594687
:10327000FCF77AFF32463B46FCF776FF40A3D3E9E2
:10328000002306460F46DDE90201FDF725F9324627
:103290003B46FCF769FF02460B4606460F46404692
:1032A0004946FCF761FF059AC1F30A53D31A312B43
:1032B00020DCC246CB46C4E90001D4E9008950466F
:1032C00042464B465946FCF74FFF3B463246FCF719
:1032D0004BFF049BC4E90201002BBFF610AF09F1BC
:1032E0000043636001F10043C4F80080A060E36024
:1032F0006D4204E726A3D3E90023DDE90201FDF7CF
:10330000EBF806460F4602460B4640464946FCF798
:103310002BFF02460B4682468B4640464946FCF749
:1033200023FF32463B46FCF71FFF1BA3D3E90023D4
:1033300006460F46DDE90201FDF7CEF832463B4670
:10334000FCF712FF06460F4664E71B4B984535D93C
:1033500002460B46FCF708FFC4E90201C4E900017C
:10336000A4E600BFAFF3008000004054FB21F93F0A
:103370003163621A61B4D03D0000601A61B4D03D7F
:103380007370032E8A19A33B83C8C96D305FE43F75
:103390000000002E8A19A33BC14920259A837B395E
:1033A000FB21E93F7BD90240FB21F93FFB21394159
:1033B0000000E03F58840008FFFFEF7F4FEA2855E8
:1033C000A5F21645A8EB05510F46FDF735FBFDF7B5
:1033D00019F802460B4630463946CDE90623FCF77C
:1033E000C3FE0022214BFDF777F80F460646FDF796
:1033F00023FBFDF707F802460B4630463946CDE978
:103400000823FCF7B1FE0022184BFDF765F84FF0DA
:10341000030800260027CDE90A010DF130093246E4
:1034200079E902013B46C24608F1FF38FDF7BCFAD4
:103430000028F4D10E4B2A46019302232146009323
:1034400006A8534600F01AF8049B0546002BBFF669
:1034500056AED4E9002101F10043C4E90023D4E9C8
:10346000022101F10043C4E9022341E70000704159
:10347000D884000821F00043194670472DE9F04F29
:10348000ADF5197D08930491B64BA29912F1140F72
:1034900053F82130A8BFD41E0293089BB8BF002464
:1034A00003F1FF330693A4BF182394FBF3F46FF0EA
:1034B000170304FB033303EB020A069A029BA71AC5
:1034C00003EB0208A39B002503EB870900220023DE
:1034D000099020AE454514DD4FF00008089A20AB56
:1034E00003EBC2050DF5E07B029B984535DC099B9B
:1034F0000022A3F1080900232F460026CDE900236E
:103500001FE0EF420BD459F82500CDE90023FCF76A
:1035100079FFDDE90023E6E802010135DAE710462C
:103520001946F8E7D7E90023F9E90201FCF7D4FFCF
:1035300002460B46DDE90001FCF718FECDE900016B
:103540000136069B083F9E42ECDDDDE9002308F1D1
:103550000108EBE802230835C6E7029B0CAA02EB40
:1035600083030B93A39BDDF808B003EB84030A935A
:1035700098AB03EBCB0353E9284570AB03EBCB03CC
:103580000CAE9846B1465F460793002FA8F1080895
:1035900071DC52462046294600F096FA00224FF090
:1035A0007F5304460D46FCF797FF00F005FB002211
:1035B0006D4BFCF791FF02460B4620462946FCF76F
:1035C000D3FD0D460446FDF737FA0590FCF71AFFC8
:1035D00002460B4620462946FCF7C6FDBAF1000F0D
:1035E000804689466DDD0BF1FF310CAB53F821307D
:1035F000059CCAF1180043FA00F2144482409B1A59
:103600000CAA42F82130CAF1170205941341009325
:10361000009B002B64DD00226FF07F411446059B68
:1036200001330593934500F3AB80BAF1000F07DD3A
:10363000BAF1010F00F0B280BAF1020F00F0B980C8
:10364000009B022B4CD142464B4600204749FCF7D9
:103650008BFD80468946002C42D0524600204349CB
:1036600000F032FA02460B4640464946FCF77CFD24
:103670008046894634E000223D4B20462946FCF72F
:103680002BFFFDF7D9F9FCF7BDFE02460B46CDE94D
:1036900000230022374BFCF71FFF02460B46204653
:1036A0002946FCF761FDFDF7C7F9D8E9002349F881
:1036B000040BDDE90001FCF759FD013F04460D460E
:1036C00063E706D10BF1FF330CAA52F82330DB1568
:1036D0009DE70022284BFDF785F900283FD1009097
:1036E0000022002340464946FDF75EF9002800F01D
:1036F000AF8000220BF1FF3302998B4261DA002A7E
:1037000076D00BF1FF3B0CAB53F82B30AAF1180A23
:10371000002BF6D052460020144900F0D5F95D4642
:1037200006460F464FF0000970ABDFF844A04FEAA1
:10373000CB0403EBCB08002D80F2C0805D46002D4A
:10374000C0F2F0800D4B4FF00009069370AB4FF0C4
:10375000000A002703EBC508ABEB0506D6E0022301
:10376000009358E720860008000020400000F03F4A
:103770000000703E000070410000E03FE08500085E
:1037800056F8043B44B923B1C3F1807346F8043CB6
:1037900001231C46013245E7CB1AF7E70BF1FF3254
:1037A0000CAB53F82230C3F316030CA941F82230B6
:1037B00046E70BF1FF320CAB53F82230C3F315038D
:1037C000F3E70CA951F82310013B0A4394E70134B5
:1037D00053F8042D002AFAD0089B20AA5B440BF171
:1037E000010802EBC3055C44444504DAA346BFE686
:1037F00001240B9BECE70A9BAB4653F82800FCF72F
:1038000001FE4FF0000900260027099BC5E90001D1
:10381000083B0093069B994507DD079B08F10108CB
:10382000E3E9026708350793DEE7009909F101092A
:10383000F1E9022300917BE80201FCF74DFE02460C
:103840000B4630463946FCF791FC06460F46E1E749
:10385000CAF100024046494600F036F90022974B73
:1038600004460D46FDF7BEF800B30022944B2046F7
:103870002946FCF731FEFDF7DFF80646FCF7C2FDEE
:1038800000228E4BFCF728FE0B46024629462046B6
:10389000FCF76AFCFDF7D0F80CAB43F82B000BF1FA
:1038A000010B0AF1180A43F82B6033E7204629463A
:1038B000FDF7C2F80CAB43F82B002BE70CAB53F829
:1038C0002500FCF79FFD32463B46FCF705FE4A46C5
:1038D00068E80201534630463946FCF7FDFD013DDC
:1038E00006460F4627E7DDF818C0F8E80223FCE893
:1038F0000201CDF818C0FCF7EFFD02460B46484622
:103900005146FCF733FC81468A460137029B9F42B1
:1039100001DCBE42E7DA48AB03EBC606C6E9009A13
:10392000013D0CE7A29B022B09DC002B2CDC4ED0C6
:10393000059B03F007000DF5197DBDE8F08FA29BF4
:10394000032BF5D148AB1C442546DA46BAF1000FEB
:1039500063DC2546DA46BAF1010F7BDC002000214A
:10396000BBF1010F00F39380DDE94878DDE94A56A9
:10397000009B002B40F09280049BC3E90078C3E9D0
:103980000256C3E90401D3E75D460020002148AB9D
:103990001C44002D32DA009B002B35D0024601F189
:1039A0000043049C0125C4E9002302460B46DDE9DF
:1039B0004801FCF7D9FB48ACAB4528DA009B13B1B2
:1039C00001F100431946049BC3E90201B0E700205E
:1039D000002148AB1C44BBF1000F08DA009B13B177
:1039E00001F100431946049BC3E90001A0E774E814
:1039F0000223FCF7BBFB0BF1FF3BECE774E802236F
:103A0000FCF7B4FB013DC4E702460B46C9E7F4E905
:103A10000223FCF7ABFB0135CEE7D5E9002355E9DE
:103A2000028940464946CDE90223FCF79FFB024646
:103A30000B4606460F4640464946FCF795FBDDE936
:103A40000223FCF793FB65E802010AF1FF3AC5E99E
:103A500000677BE7D5E9002355E9028940464946DE
:103A6000CDE90223FCF782FB02460B4606460F46D1
:103A700040464946FCF778FBDDE90223FCF776FB7C
:103A800065E802010AF1FF3AC5E9006763E774E8F7
:103A90000223FCF76BFB0BF1FF3B61E7049B049AED
:103AA00008F100441F605C609D6006F10043D36034
:103AB00001F10043106153613AE700BF000070411B
:103AC0000000703E000000002DE9F0481646C1F3EA
:103AD0000A5283468C460B4682B921F000430343C9
:103AE00039D02F4B0022FCF7F7FC2E4B83469E4229
:103AF0008C460DDA26A3D3E900231BE040F2FF77C2
:103B0000BA4209D10246FCF731FB83468C4622E0DB
:103B10000B46C1F30A52363A4CF250318E420CDD5C
:103B20001DA3D3E900231C464FEADC7161F3DF7467
:103B300021461D48FCF7D0FCE7E740F2FE71324415
:103B40008A42EDDC002A0ADD23F0FF4323F4E00380
:103B500043EA0255AC4658466146BDE8F08812F18A
:103B6000350F09DA0CF0004343F0D27141F4B7315C
:103B70000E4841F01F01BDE723F0FF43363223F426
:103B8000E00343EA0255584629460022084BD1E794
:103B900059F3F8C21F6EA5019C7500883CE4377E7E
:103BA00000005043B03CFFFF9C75008859F3F8C2F9
:103BB0000000903C000000002DE9F041C1F30A57DD
:103BC000A7F2FF36132E02460B460C4605468046EA
:103BD00035DC002E17DA34A3D3E90023FCF7C6FA4C
:103BE00000220023FCF708FF50B1002C57DA24F024
:103BF00000442C430025AC422D4C08BF4FF000443C
:103C000023462A4624E02B4F374101EA070C5CEAA1
:103C1000000C1DD024A3D3E90023FCF7A7FA00224F
:103C20000023FCF7E9FE0028EAD0002CBEBF4FF4C9
:103C300080133341E418002524EA0704E0E7332E1B
:103C40000ADDB6F5806F03D1FCF790FA02460B4609
:103C500010461946BDE8F0814FF0FF3CA7F213472C
:103C60002CFA07F70742F3D00FA3D3E90023FCF7A0
:103C70007DFA00220023FCF7BFFE0028C0D0002CF4
:103C80000ADA142E01D1013406E00123C6F134060C
:103C9000B3401D444545F6D325EA0705B0E70025A6
:103CA0002C46ADE7AFF300809C7500883CE4377E7E
:103CB0000000F0BFFFFF0F00002B2DE9F0471D466D
:103CC000BBBF03F100431D4600232D2388B01446DB
:103CD000B8BF1446129A109E1370149BDDF84CA0C6
:103CE00023F02008B8F1460F05D0B8F1450F00D1F8
:103CF0000136022300E0032307AA049206AACDE9B5
:103D000002A2CDE9003622462B4601F081F8B8F137
:103D1000470F074619D1119BDB070ED500EB0609AB
:103D20000022002320462946FCF73EFE08B1CDF8CC
:103D30001C903022079B4B451ED33846079B159A93
:103D4000DB1B136008B0BDE8F087B8F1460F00EB4D
:103D50000609E5D10378302B0AD100220023204642
:103D60002946FCF721FE18B9C6F10106CAF8006021
:103D7000DAF800309944D3E7591C07911A70D9E753
:103D8000F7B50029B6BF2D232B234942092902701C
:103D9000437029DD0DF107031D460A27B1FBF7F635
:103DA0001A4607FB1614303402F8014C0C46632CFB
:103DB000314603F1FF33F1DC3031941E03F8011C6E
:103DC0002346411CAB420AD30DF109039B1AAC42B6
:103DD00088BF002302330344181A03B0F0BD13F860
:103DE000016B01F8016FEDE7302330318370C17052
:103DF000031DF1E72DE9F04F91B00C46DDF8688026
:103E000016461F46054600F0F1FE03681846089363
:103E1000FCF79EF900230E93D8F800300990073381
:103E200023F0070303F1080294F818A0D4F800B0B7
:103E3000C8F80020D3E9008929F000430B93CDF89E
:103E400028804FF0FF32DDE90A01C4E912899C4B5A
:103E5000FCF7DCFD70BBDDE90A014FF0FF32984B47
:103E6000FCF7B6FD30BB0022002340464946FCF774
:103E7000A5FD10B12D2384F84330924A924BBAF13C
:103E8000470F94BF9046984603234FF000092361E3
:103E90002BF00403236033462146284600970FAADF
:103EA00000F0D4F9013040F090804FF0FF3011B0B5
:103EB000BDE8F08F42464B4640464946FCF7A6FD1A
:103EC00048B14B46002BB8BF2D23804AB8BF84F8B9
:103ED00043307F4BD3E763680AF0DF015A1C3FD1C0
:103EE0000623636000224BF48063236006920EAACF
:103EF000CDE904A20DAA03920DF13302CDE90132FE
:103F000063684246009328464B460A91FFF7D4FE69
:103F10000A99804647290D9928D1C81C02DB63689D
:103F2000994240DDAAF1020A5FFA8AFA5246013943
:103F300004F150000D91FFF723FF0E9A81461318EC
:103F4000012A236102DC2268D20701D501332361F3
:103F50009DF83330002B9ED02D2384F843309AE710
:103F60004729BFD1002BBDD10123BAE7BAF1650FB4
:103F7000DCD9BAF1660F18D1002963680BDD216125
:103F800013B92268D00702D501330B4423614FF0E7
:103F90000009A165DCE713B92268D20701D5023315
:103FA000F4E70123F2E74FF0670A0E9B994205DB25
:103FB00023682161D807EAD54B1CE7E70029CCBF6D
:103FC0000122C1F102021344E0E723685A0507D435
:103FD0002369424631462846B84701302BD164E771
:103FE000BAF1650F40F2DC80D4E91201002200230F
:103FF000FCF7DAFC002833D0012331462846354A45
:10400000B84701303FF451AFDDE90D38434502DBDD
:104010002368D8070FD5DDE9082331462846B8477D
:1040200001303FF442AF4FF0000908F1FF3804F1CE
:104030001A0AC84509DC23689B0700F10281E06881
:104040000F9B9842B8BF184631E7012352463146CC
:104050002846B84701303FF428AF09F10109E8E7E5
:104060000D9B002B38DC012331462846194AB847FE
:1040700001303FF41AAFDDE90D3959EA030302D1EB
:104080002368D907D7D5DDE9082331462846B84744
:1040900001303FF40AAF4FF0000A04F11A0B0D9BF8
:1040A0005B42534501DC4B4693E701235A463146B8
:1040B0002846B84701303FF4F8AE0AF1010AEEE7AE
:1040C000FFFFEF7F3086000834860008388600083E
:1040D0003C86000840860008A36DDDF838A05345F3
:1040E000A8BF5346002B994636DC4FF0000B29EA57
:1040F000E97904F11A02A36D0A93A3EB09035B4566
:1041000031DC0D9B9A453ADC2368DA0737D40D9BE6
:10411000AAEB03090A9BAAEB03039945A8BF99469A
:10412000B9F1000F33DC4FF0000829EAE97904F116
:104130001A0B0D9BAAEB0303A3EB090343457FF77F
:104140007AAF01235A4631462846B84701303FF43A
:10415000ACAE08F10108ECE7424631462846B847C4
:104160000130C2D1A1E60123314628460A92B84760
:1041700001303FF49AAE0A9A0BF1010BBBE73146CE
:10418000DDE908232846B8470130C0D18DE60A9AF8
:104190004B46314628464244B8470130C3D184E6F5
:1041A000DDF838A0BAF1010F01DCDB0736D50123B9
:1041B000424631462846B84701303FF476AEDDE945
:1041C000082331462846B84701303FF46EAED4E9A3
:1041D0001201002200230AF1FF3AFCF7E5FBC0B907
:1041E000534608F1010231462846B84701300CD148
:1041F0005BE601235A4631462846B84701303FF472
:1042000054AE08F10108D045F3DB4B4604F15002EF
:10421000E0E64FF0000804F11A0BF4E701234246F0
:10422000E1E701234A4631462846B84701303FF4CA
:104230003CAE08F10108E3680F995B1A4345F0DCD6
:10424000FDE64FF0000804F11909F4E72DE9F04705
:10425000164698468A680B6907469342B8BF1346CC
:10426000336091F843200C46DDF820900AB1013309
:1042700033602368990642BF336802333360256890
:1042800015F0060506D104F1190AE36832689B1A95
:10429000AB422BDC94F843302268003B18BF01236B
:1042A000920630D44146384604F14302C8470130F3
:1042B00023D02368226903F00603042B14BF0025D2
:1042C00033684FF0000608BFE56804F11A0408BF20
:1042D000ED1A54F8123C08BF25EAE5759342C4BFB5
:1042E0009B1AED18B5421AD1002008E0012352466E
:1042F00041463846C847013003D14FF0FF30BDE892
:10430000F0870135C1E73020E11881F843005A1CDD
:1043100094F845102244023382F84310C2E7012387
:10432000224641463846C8470130E6D00136D9E733
:104330002DE9FF470F7E9146782F80460C469A461E
:104340000C9E01F1430207D8622F0AD8002F00F01B
:10435000D380582F00F0BA8004F1420684F84270EE
:104360003AE0A7F16303152BF6D801A151F823F029
:10437000C9430008DD4300085943000859430008B9
:104380005943000859430008DD4300085943000819
:10439000594300085943000859430008DF44000806
:1043A000074400089944000859430008594300088D
:1043B0000145000859430008074400085943000814
:1043C00059430008A144000833681A1D1B68326075
:1043D00004F1420684F8423001239EE033682068ED
:1043E000191D3160060601D51D6803E04506FBD5A1
:1043F000B3F90050002D03DA2D236D4284F84330C9
:104400000A23594811E021683368080653F8045B11
:1044100002D4490648BFADB26F2F336014BF0A23E0
:1044200008235148002184F843106668002EA8BF75
:104430002168A660A4BF21F0040121600DB9002EFF
:104440004BD01646B5FBF3F103FB1157C75D06F8D9
:10445000017D2F46BB420D46F4D9082B0BD12368B2
:10446000DF0708D5236961689942DEBF302306F86B
:10447000013C06F1FF36921B22614B462146404625
:10448000CDF800A003AAFFF7E1FE01304AD14FF0BA
:10449000FF3004B0BDE8F087236843F020032360B9
:1044A0007827324884F84570236831681F0651F830
:1044B000045B02D45F0648BFADB23160D90744BF88
:1044C00043F0200323601DB11023ABE72648E9E742
:1044D000236823F020032360F6E71646BDE7336820
:1044E0002568181D616930602E061B6801D51960AA
:1044F00002E06806FBD51980002316462361BCE75D
:10450000336800211A1D32601E686268304600F070
:10451000E4FB08B1801B606063682361002384F8BA
:104520004330AAE73246494640462369D047013026
:10453000ADD023689B0713D4E068039B9842B8BFB3
:104540001846A6E70123324649464046D047013087
:104550009DD00135E36803995B1AAB42F2DCEBE7CF
:10456000002504F11906F5E7428600085386000885
:104570002DE9F04F87B003938B6817465A1EB2F5AA
:10458000AE7F82BF6FF4AE7503EB050B40F25D1397
:104590000A464FF0000588BF8B600B68804643F4E5
:1045A000F06342F81C3B0C4698BF4FF0000B1646D8
:1045B000AA46A946CDE9045501920295A26852B1D6
:1045C0003B681B784E2B65D8402B3DD8A3F12B01BF
:1045D000C8B20E283BD9B9F1000F03D0236823F4E9
:1045E000807323600AF1FF3ABAF1010F00F21881DB
:1045F000019B9E4200F20981012007B0BDE8F08FC7
:10460000A3F161020D2AE6D801A151F822F000BF02
:1046100057470008D7450008D7450008D745000888
:10462000B74700088F470008D7450008D74500085E
:1046300065470008D7450008D7450008D74500085A
:10464000D74500081D470008A3F14102DAE70E290B
:10465000C1D801A050F821F00D470008D745000847
:104660000D470008A3470008D7450008B5460008D5
:10467000F3460008F3460008F3460008F346000836
:10468000F3460008F3460008F3460008F346000826
:10469000F34600086E2B09D8602BB1D8542B7BD081
:1046A000592B98D1072D96D108252CE0742B73D067
:1046B000792BF6E72168C8051BD521F08001216020
:1046C00009F10109BBF1000F03D001320BF1FF3BEF
:1046D000A260A368013BA3602369013323617B6867
:1046E000013B002B7B6040F387803B6801333B60DC
:1046F00064E71AEB05017FF46EAF0D468A46226827
:1047000022F4C072226006F8013BE2E7226810063C
:104710007FF561AF22F080022260F4E7BAF1000F6A
:104720000ED1B9F1000F0ED1226802F4E061B1F5AB
:10473000E06F08D122F4F0624FF0010A2260E2E754
:10474000BAF1020F55D0012D02D0042D7FF443AFF2
:104750000135EDB2D7E7BAF1010F7FF43CAF4FF06E
:10476000020AD0E77DB9B9F1000F7FF437AF2268B4
:1047700002F4E061B1F5E06F40F0038122F4F062F1
:1047800001252260BFE7032DE2D0052DDEE7022DD3
:104790007FF421AF0325B6E7062D7FF41CAF072574
:1047A000B1E7226891057FF516AF22F420722260EE
:1047B000CDF80890A7E7226802F4A061B1F5806FF8
:1047C00006D050057FF507AFB9F1000F00F0D98092
:1047D000910558BF029922F4F06258BFA9EB01017C
:1047E00042F4C0724FF0000958BFCDE904162260B0
:1047F00089E74FF0030A86E739464046D4F880310E
:10480000984700283FF4DAAEE5E6D4F87C313A4622
:10481000404616F8011D98472369013B2361E7E6EE
:104820006B1E062B24D8022D36D8019B9E427FF6A4
:10483000E3AED4F87C313A46404616F8011D98475D
:104840002369013B2361F0E7D4F87C313A464046C6
:104850001BF8011D98472369013B23610AF1FF3AC8
:104860005FFA8AFABAF1020FEED1033DEDB2761B80
:104870002368DA0530D55B0511D5019B9E427FF692
:10488000BBAED4F87C313A46404616F8011D984735
:104890002369013B2361F0E7AA46B346DEE716F839
:1048A000011C2369652903F1FF3306F1FF352361FC
:1048B0000CD045290AD0D4F87C313A464046984776
:1048C000236916F8021C013BB51E23613A46404697
:1048D000D4F87C3198472E46226812F0100201D09D
:1048E00000208AE63270236803F4C063B3F5806F5A
:1048F0001CD1029B4B45A3EB090223D10022404669
:10490000019902F0EDFB039B25681B6815F0020F6F
:1049100006460F4603F104021FD003990A601B6884
:10492000C3E90067E3680133E360D9E7049B002B28
:10493000E4D005990A234046013102F051FC049B62
:10494000059EC21A04F26F139E4228BF04F5B77683
:1049500030460D4900F0DEF8D0E76D07DDD4039D49
:104960002A601D6802460B46FCF750F820B1074844
:1049700000F0C2F92860D5E730463946FCF7A4F8C4
:10498000F8E74FF000092DE664860008FD8900086D
:10499000002310B50446C0E90033C0E90433836046
:1049A00081814366C2818361194608225C3000F030
:1049B00014F90D4B246263620C4BA3620C4BE3624F
:1049C0000C4B23630C4B9C4206D003F168029442CB
:1049D00002D0D0339C4205D104F15800BDE810400C
:1049E00000F078B910BD00BF554B0008774B0008A8
:1049F000AF4B0008D34B00080C020020024A0349C9
:104A0000034800F069B800BF200000209575000839
:104A10003000002041680C4B10B59942044601D08B
:104A200002F0B8FDA168094B994202D0204602F07D
:104A3000B1FDE168064B994204D02046BDE8104024
:104A400002F0A8BD10BD00BF0C02002074020020BF
:104A5000DC02002010B50B4B0B4C0C4A20461A60B0
:104A600004210022FFF794FF04F1680001220921CC
:104A7000FFF78EFF04F1D0000222BDE810401221A2
:104A8000FFF786BF440300200C020020FD49000808
:104A9000014800F020B900BF4D030020014800F09C
:104AA0001BB900BF4D03002010B50446FFF7F0FF0F
:104AB000236A1BB1BDE81040FFF7F0BF044B23622F
:104AC000044B1B68002BF5D1FFF7C4FFF2E700BFD2
:104AD000154A0008440300202DE9F843074688469C
:104AE00014460026D4E90195B9F1010905D52468D9
:104AF000002CF7D13046BDE8F883AB89012B07D9EC
:104B0000B5F90E30013303D029463846C047064375
:104B10006835E9E70EB46FF0004100B59CB01DABFD
:104B200002900690079104910848094953F8042B14
:104B30000591006802A9019302F0B0FB0022029BDC
:104B40001A701CB05DF804EB03B070472C00002015
:104B50000802FFFF10B50C46B1F90E1000F06CF81A
:104B60000028ABBF636DA3891B1823F48053ACBF2F
:104B70006365A38110BD2DE9F0411F468B89054671
:104B8000DB050C46164605D502230022B1F90E10AE
:104B900000F040F8A389324623F48053A3812846CD
:104BA0003B46B4F90E10BDE8F04100F057B810B51F
:104BB0000C46B1F90E1000F02DF8431CA38915BF67
:104BC000606523F4805343F48053A38118BFA3810D
:104BD00010BDB1F90E1000F00DB803460244934227
:104BE00000D1704703F8011BF9E700000048704747
:104BF0006C01002038B50023054D044608462B60A3
:104C0000FCF7B3FF431C02D12B6803B1236038BD0E
:104C10004803002038B50446084611460022054DD9
:104C20002A601A46FCF7C5FF431C02D12B6803B16A
:104C3000236038BD4803002038B5044608461146B5
:104C40000022054D2A601A46FCF756FF431C02D18C
:104C50002B6803B1236038BD4803002038B50446F3
:104C6000084611460022054D2A601A46FCF761FFEE
:104C7000431C02D12B6803B1236038BD48030020D8
:104C8000014B1868704700BF2C00002070B500264B
:104C90000C4D0D4C641BA410A64209D103F066FB19
:104CA00000260A4D0A4C641BA410A64205D170BD13
:104CB00055F8043B98470136EEE755F8043B984712
:104CC0000136F2E7688A0008688A0008688A0008E6
:104CD0006C8A0008704770477047034610B5C9B228
:104CE00002449342184601D1002003E004780133C6
:104CF0008C42F6D110BD0000004870470000C07F14
:104D00002DE9F74F03690C690746A3427EDB013C9E
:104D1000A30000F1140501F11408009305EB8403CE
:104D2000019358F8243055F8242001339A42B2FBFD
:104D3000F3F608EB84092ED34FF0000AC446AE46C2
:104D4000D3465CF8043B98B206FB00A01B0C020C97
:104D500006FB0323DEF8002080B292B2121A5A44F6
:104D6000DEF800004FEA134A9BB2C3EB224303EB89
:104D7000104392B242EA0342E1454FEA234B4EF818
:104D8000042BDED2009BEB582BB9019B043B9D42C8
:104D90001A462FD33C61384601F0C2F9002825DBC2
:104DA0002946002058F8042BD1F800C01FFA82FED3
:104DB0001FFA8CF3A3EB0E030344120CC2EB234245
:104DC00002EB1C429BB243EA0243C1454FEA224038
:104DD00041F8043BE6D255F8242005EB840322B9C0
:104DE000043B9D421A460BD33C610136304603B06A
:104DF000BDE8F08F1268043B002ACBD1013CC6E726
:104E00001268043B002AEFD1013CEAE70020EEE7FC
:104E10002DE9F04F14461D46C76997B08346CDE98A
:104E20000245239E7FB9102000F002FE0246CBF817
:104E30001C0020B9EF21A84BA84802F023FCC0E9D0
:104E400001770760C760DBF81C30196859B15A68F0
:104E5000012393404A608B60584600F0DFFE002239
:104E6000DBF81C301A602B1EAFBF0023012223F099
:104E700000430393A8BF3360DDF80C80984BB8BFA4
:104E8000326033EA080312D142F20F73229A1360A0
:104E9000C8F31303234300F05085249BDFF844A29A
:104EA000002B00F052850AF1030300F04CBDDDE950
:104EB0000223CDE90C23DDE90C0100220023FBF7DE
:104EC00073FD074658B10123229A1360249B13B146
:104ED000854B249A1360DFF814A200F036BD14ABA2
:104EE000019315AB00935846DDE90C2301F030FA2D
:104EF000C8F30A568146002E77D0DDE90C010D9BE0
:104F0000A6F2FF36C3F3130343F07F5343F4401379
:104F1000129719460022764BFBF726F968A3D3E9CE
:104F20000023FBF7D9FA68A3D3E90023FBF71EF9A6
:104F3000044630460D46FBF765FA65A3D3E9002326
:104F4000FBF7CAFA02460B4620462946FBF70EF944
:104F500004460D46FBF770FD00220746002320465D
:104F60002946FBF72BFD40B13846FBF74BFA2246AA
:104F70002B46FBF719FD00B9013F162F53D8DDE989
:104F80000C015C4B03EBC703D3E90023FBF716FDD1
:104F900000284AD00023013F0F93149B9B1B5A1EED
:104FA00046BFC3F1010800234FF00008099248BF33
:104FB0000993002F3BDB099B0E973B440993002389
:104FC0000A93209B092B66D8052BC4BF043B209372
:104FD000209BC8BF0024A3F10203D8BF0124032BE8
:104FE00064D8DFE803F02B383656DDE914631E443D
:104FF00006F23243202BC1BFC3F1400308FA03F885
:1050000006F2124324FA03F3D6BFC3F1200348EAA1
:10501000030004FA03F0FBF7E5F90122A1F1F873AC
:10502000013E129275E70123B6E70F90B5E77B4288
:105030000A930023A8EB07080E93C2E700230B9303
:10504000219B002B35DC01231A46CDE90733219241
:105050000BE00123F3E700230B93219BFB1808933C
:105060000133012B0793B8BF012300210422DBF891
:105070001C0002F114059D421FD94160584600F002
:105080008DFD8246002839D1024640F2AF111A4BFD
:10509000D2E60123E0E7012400230B9420934FF094
:1050A000FF330022CDE907331223D0E701230B930E
:1050B000F5E7219BCDE90733D7E701315200D8E767
:1050C00061436F63A787D23FB3C8608B288AC63F0E
:1050D000FB799F501344D33F768600088D860008E5
:1050E0000000F07F728600084186000840860008B4
:1050F0000000F83F88870008E5860008DBF81C30D0
:105100001860079B0E2B00F2A480002C00F0A180F9
:10511000002F33DD864B07F00F0203EBC203F805C7
:10512000D3E90034CDE904344FEA271416D5DDE97C
:105130000C01804B0326D3E90823FBF7F7FACDE9EE
:10514000020104F00F047B4D54B9DDE90423DDE9CD
:105150000201FBF7EBFACDE9020128E00226F2E7B3
:10516000E10708D5DDE90401D5E90023FBF7B4F92F
:10517000CDE90401013664100835E5E700F0D2807E
:10518000DDE90C017C426A4B04F00F0203EBC20321
:10519000D3E90023FBF7A0F902260023CDE90201A1
:1051A000644D2411002C40F0B280002BD3D1DDE9F6
:1051B00002450F9B002B00F0B780002220462946B5
:1051C0005D4BFBF7FBFB002800F0AE80079B002B3C
:1051D00000F0AA80089B002B37DD7B1E204604933D
:1051E00000222946554BFBF777F9CDE90201089CCF
:1051F00001363046FBF706F9DDE90223FBF76CF9CF
:1052000000224F4BFAF7B2FF0546A1F15076002C71
:1052100040F09A80DDE9020100224A4BFAF7A4FF30
:1052200002460B46CDE902232A463346FBF7E4FB50
:10523000002840F08E82DDE902012A4606F1004393
:10524000FBF7BCFB002840F02781DDE90C34CDE9F9
:105250000234159B002BC0F263810E2F00F3608196
:10526000334B03EBC703D3E90034CDE90434219B6E
:10527000002B03DA079B002B40F30081DDE9024598
:105280005646DDE9042320462946FBF74FFAFBF793
:10529000D3FB8046FBF7B6F8DDE90423FBF71CF9E6
:1052A00002460B4620462946FAF75EFF08F1300415
:1052B000079D06F8014BA6EB0A04A54202460B46E1
:1052C00040F01681FAF752FFDDE9042304460D464B
:1052D000FBF792FB002840F0F880DDE9042320462C
:1052E0002946FBF761FB18B118F0010F40F0ED8083
:1052F0004946584600F092FC00233370229B013748
:105300001F60249B002B00F020831E601DE3E2073A
:1053100005D5D5E90023FBF7DFF80123013664103A
:1053200008353FE7022642E7079C049761E700BF84
:1053300088870008608700080000F03F00002440D4
:1053400000001C4000001440704B0B9903EBC40399
:1053500053E902235444002945D000206C49FBF74F
:10536000E5F933462A46FAF7FFFE5646CDE9100125
:10537000DDE90201FBF760FB0546FBF743F8024657
:105380000B46DDE90201FAF7EFFE02460B46303527
:10539000CDE90223DDE9102306F8015BFBF70EFBE4
:1053A000002863D1DDE9022300205A49FAF7DCFE28
:1053B000DDE91023FBF702FB002840F08780A642BE
:1053C0003FF443AFDDE910010022534BFBF784F8B3
:1053D0000022CDE91001DDE902014F4BFBF77CF81B
:1053E000CDE90201C4E731462846FBF775F8564679
:1053F000CDE910011394DDE90201FBF71DFB054621
:10540000FBF700F802460B46DDE90201FAF7ACFEB5
:1054100002460B46303506F8015BA642CDE9022371
:105420004FF0000224D1DDE91001394BFAF79EFE5E
:1054300002460B46DDE90201FBF7DEFA002845D102
:10544000DDE9102300203249FAF78EFE02460B46B2
:10545000DDE90201FBF7B2FA00283FF4F6AE139E35
:10546000731E139316F8013C302BF8D0049F3FE7CE
:10547000294BFBF731F8CDE90201BCE70CD1DDE99E
:1054800004010022254BFBF727F8DDE90223FBF797
:10549000A9FA002800F05B8100242546219B56468E
:1054A000DB43049300272146584600F0B7FB002D4C
:1054B000DCD02FB1AF4203D03946584600F0AEFBE6
:1054C0002946584600F0AAFBD0E7049733461E460B
:1054D00013F8012D392A07D19A45F8D1049A0132DF
:1054E000049230228AF800201A7801321A70BDE73F
:1054F0000022094BFAF7F0FF0022002304460D4674
:10550000FBF752FA00283FF4BCAEF1E688870008AA
:105510000000E03F0000F03F000024400000144085
:105520000B9A002A00F0DB80209A012A00F3BF804A
:10553000129A002A00F0B78003F2334346460A9CD1
:10554000099A01211A4458469844099200F064FCD3
:1055500005465EB1099B002B08DDB342A8BF334668
:10556000099AA8EB0308F61AD31A09930A9BF3B118
:105570000B9B002B00F0B7808CB129462246584681
:1055800000F008FD4A4601460546584600F05AFC20
:1055900049460490584600F041FB049B99460A9BFB
:1055A0001A1B04D04946584600F0F4FC81460121FC
:1055B000584600F031FC0E9B0446002B00F0C981D8
:1055C0001A460146584600F0E5FC209B0446012B94
:1055D00000F38F80029B002B40F08780039BC3F376
:1055E0001303002B40F08380039B23F000431B0D2B
:1055F0001B052BB1099B08F1010801330993012315
:105600000A930E9B002B00F0AA81236904EB83030D
:10561000186900F0B5FBC0F12000099B184410F098
:105620001F0071D0C0F12003042B65DD099BC0F180
:105630001C000344804406440993B8F1000F05DDC3
:1056400049464246584600F0FFFC8146099B002B24
:1056500005DD21461A46584600F0F6FC04460F9B2D
:10566000002B53D02146484600F05AFD00284DDA61
:105670007B1E494604930A220023584600F0F0FAA4
:105680000B9B8146002B00F06C81002329460A22E7
:10569000584600F0E5FA089B0546002B61DC209B8C
:1056A000022B3BDC5DE0149BC3F1360346E7079B0E
:1056B0005C1E0A9BA342BFBF0A9B0E9AE31AD21834
:1056C000A8BF1C1B079BBEBF0A940E920024002B90
:1056D000B5BFA8EB030646460023079B30E74646C6
:1056E0000A9C0B9D35E70A9A5CE7002388E7029B3A
:1056F00086E700230A9388E79FD0099A1C331A444F
:1057000098441E44099298E70346F6E7079B0497DE
:10571000002B20DC0893209B022B1EDD089B002B16
:105720007FF4BCAE21460522584600F099FA0146A6
:105730000446484600F0F4FC00287FF7AFAE312362
:10574000564606F8013B049B01330493AAE6079CE6
:1057500004972546F3E7079B08930B9B002B00F06B
:105760000481002E05DD29463246584600F06CFCC7
:1057700005460A9B002B5AD05846696800F00EFA7D
:10578000064628B9024640F2EF21834BFFF754BB8F
:105790002A6905F10C01023292000C3001F05EFF23
:1057A00001223146584600F04FFC2F4605460AF1CB
:1057B00001030793089B53440B93029B03F00103DF
:1057C0000A93079B2146013B48460293FFF798FA4C
:1057D0003946089000F13008484600F0A1FC2A46FE
:1057E00009902146584600F0B7FCC268064602BB45
:1057F0000146484600F094FC0246314658460C9259
:1058000000F00CFA209B0C9A079E43EA02010A9BC7
:10581000194310D1B8F1390F29D0099B002B02DDB3
:10582000089B03F13108029B83F800803BE6284681
:10583000BBE70122E1E7099B002B04DB20990B4326
:105840000A990B4320D1002AEDDD49460122584632
:1058500000F0FAFB2146814600F062FC002803DCE0
:10586000E1D118F0010FDED0B8F1390FD8D13923CA
:10587000029A137033461E4616F8012C013B392A52
:1058800052D001321A700EE6002A07DDB8F1390F46
:10589000EDD0029A08F10103137004E6079B079A02
:1058A00003F8018C0B9B934228D0494600230A221F
:1058B000584600F0D5F9AF4281464FF000034FF053
:1058C0000A023946584607D100F0CAF9074605468C
:1058D000079B0133079374E700F0C2F92946074696
:1058E00000230A22584600F0BBF90546F0E7089B62
:1058F0000027002BCCBF1E460126564449460122F4
:10590000584600F0A1FB2146814600F009FC002822
:10591000B0DC02D118F0010FACD133461E4613F8AB
:10592000012D302AFAD0BEE59A45A4D1049B01335B
:10593000049331238AF80030B5E5249BDFF85CA09E
:105940001BB10AF10803249A1360504617B0BDE852
:10595000F08F209B012B7FF73DAE0E9B0A93012019
:105960005BE6089B002B7FF7D6AE5646214648469D
:10597000FFF7C6F900F13008089B06F8018BA6EB8B
:105980000A029342B3DD494600230A22584600F03A
:1059900067F98146EAE700BFE586000869860008E6
:1059A00038B50546002940D051F8043C0C1F002BA7
:1059B000B8BFE41800F0E6F81C4A136833B9636016
:1059C00014602846BDE8384000F0E2B8A34208D988
:1059D000206821188B4201BF19685B680918216093
:1059E000EDE71A465B680BB1A342FAD9116850186B
:1059F000A0420BD120680144501883421160E0D1CD
:105A000018685B68084410605360DAE702D90C2319
:105A10002B60D6E7206821188B4201BF19685B68AC
:105A20000918216063605460CBE738BD540300203F
:105A3000024B0146186800F025B800BF2C0000207A
:105A400070B50F4E0C463168054611B901F0F6FDF0
:105A500030602146284601F0F1FD431C03D14FF090
:105A6000FF34204670BDC41C24F00304A042F8D0CB
:105A7000211A284601F0E2FD0130F2D1EFE700BF24
:105A8000500300202DE9F843CD1C25F0030508350F
:105A90000C2D38BF0C25002D064601DBA94204D988
:105AA0000C2333600020BDE8F883DFF8D48000F0D9
:105AB00069F8D8F800301C4644BB29463046FFF749
:105AC000BFFF431C044658D1D8F800402746002F9A
:105AD00043D1002C4BD023683946304604EB0309F0
